{
  "transactions": [
    {
      "hash": "0x426a7bbff1a3084b62c15d2f6790c57a0088ec8f62cfb70b339585d5ceb04e78",
      "transactionType": "CALL",
      "contractName": null,
      "contractAddress": "0x24ff77ff0e97f81de69ba2077702aad89d9fe3d8",
      "function": "setTradingEngine(address)",
      "arguments": [
        "0xa1637A1D40f083E380a89a29f9D8Cf4d060e8303"
      ],
      "transaction": {
        "from": "0xb05b9dcbdcba563cb2525ba35292c97f982de08c",
        "to": "0x24ff77ff0e97f81de69ba2077702aad89d9fe3d8",
        "gas": "0x1010a",
        "value": "0x0",
        "input": "0x25cdbe98000000000000000000000000a1637a1d40f083e380a89a29f9d8cf4d060e8303",
        "nonce": "0xc1",
        "chainId": "0x7b7b"
      },
      "additionalContracts": [],
      "isFixedGasLimit": false
    },
    {
      "hash": null,
      "transactionType": "CALL",
      "contractName": null,
      "contractAddress": "0xfb5fea6e31b5f5093519a7cceb6d28d45c7b5b01",
      "function": "setTradingEngine(address)",
      "arguments": [
        "0xa1637A1D40f083E380a89a29f9D8Cf4d060e8303"
      ],
      "transaction": {
        "from": "0xb05b9dcbdcba563cb2525ba35292c97f982de08c",
        "to": "0xfb5fea6e31b5f5093519a7cceb6d28d45c7b5b01",
        "gas": "0x11037",
        "value": "0x0",
        "input": "0x25cdbe98000000000000000000000000a1637a1d40f083e380a89a29f9d8cf4d060e8303",
        "nonce": "0xc2",
        "chainId": "0x7b7b"
      },
      "additionalContracts": [],
      "isFixedGasLimit": false
    }
  ],
  "receipts": [],
  "libraries": [],
  "pending": [
    "0x426a7bbff1a3084b62c15d2f6790c57a0088ec8f62cfb70b339585d5ceb04e78"
  ],
  "returns": {},
  "timestamp": 1761682582925,
  "chain": 31611,
  "commit": "5feed4f"
}